:020000040000FA
:100000000A128A11E12F7E088A007F0882000A12F4
:100010008A1103200A128A118000840A04087D06CE
:1000200003190034FF0A0319FE0A0728F800F40137
:10003000F5017008F200F3017208F6007308F7008A
:10004000781C232824282A287608F4070318F50AA0
:100050007708F50701300310F60DF70DFF3E031D7D
:100060002B280310F80C7808031D3728382820287F
:100070007508F1007408F0000800F800780803190A
:10008000422843285728F31F462847285728700935
:10009000FA007109FB007209FC007309FD00FA0AFD
:1000A0000319FB0A0319FC0A0319FD0A5F287308E8
:1000B000FD007208FC007108FB007008FA0073086C
:1000C000720471047004031D6628672870280030CC
:1000D000F3000030F2000030F1000030F000F628AC
:1000E0009630F4007408F90082280130F400740896
:1000F000F90701300310FD0CFC0CFB0CFA0CFF3E61
:10010000031D7A28FE307D05031D87288828752861
:10011000A4280130F4007408F9070130FA07003010
:1001200003180130FB07003003180130FC070030D2
:1001300003180130FD0701300310FD0CFC0CFB0C13
:10014000FA0CFF3E031D9C28FF307D05031DA928E6
:10015000AA288928B6280130F9020130F4000310DA
:10016000FA0DFB0DFC0DFD0DF40BAF28FC1BB9289F
:10017000BA28C028023079020318BF28C028AB284B
:100180007918C328C428CC28FF30FA05FF30FB05B6
:100190007F30FC05FF30FD050310F90C7908F400F1
:1001A000F501F601F70118300310F40DF50DF60D09
:1001B000F70DFF3E031DD4287408FA047508FB04EC
:1001C0007608FC047708FD0478080319E828E92874
:1001D000EE28F31FEC28ED28EE28FD177D08F3002C
:1001E0007C08F2007B08F1007A08F0000800831216
:1001F0000313D701D8010830D1000030D200E12923
:100200005708CD004D07A03E8400831300088800E6
:100210000130D7070318D80A0030D8070030F000A3
:10022000F1000A128A15E5260A128A117008013EA9
:1002300083120313D30071080318013E003ED4005B
:100240005208F1005108F0005808F3005708F20076
:100250000A128A152B270A128A11710883120313B6
:10026000D8007008D7004430C1007A30C0003E305A
:10027000BF007F30BE005308F0005408F100F201C7
:10028000F30100300A128A113D200A128A11730804
:1002900083120313A7007208A6007108A500700856
:1002A000A4003F30A3007930A200FB30A100E7306A
:1002B000A0000A128A1180240A128A1183120313E1
:1002C0002308BD002208BC002108BB002008BA009A
:1002D0000A128A1507270A128A11831203133D088E
:1002E000C5003C08C4003B08C3003A08C2000A121B
:1002F0008A1584270A128A11831203134508DC0029
:100300004408DB004308DA004208D9005C085B04BB
:100310005A045904031D8D298E2996290030DC00CA
:100320000030DB000030DA000130D9005C08031D2A
:10033000A8295B08031DA82903305A02031DA4291C
:10034000E9305902031DA429031CA729A829B229B1
:10035000003083120313DC000030DB000330DA00CE
:10036000E830D90083120313D501D601C629000055
:1003700000000000000000000000000001308312B7
:100380000313D5070318D60A0030D6075508CD0049
:100390005608CE000030CE1BFF30CF00D0005C08E6
:1003A0005002031DDD295B084F02031DDD295A0899
:1003B0004E02031DDD2959084D02031CE029E129E5
:1003C000B72965086604031DE629E7290029080006
:1003D0007308803983120313A0002008F800730803
:1003E000A0002007A1002108FA00F21FF829F9292E
:1003F000FA297A147A080319FE29FF290F2A7A0AA2
:10040000031D032A042A0C2A0030F3000030F200F6
:100410000030F1000030F000F217F301172A00302D
:10042000F3000030F2000030F1000030F0007708F7
:100430008039A0002008F900790878060319212ADC
:10044000222A232A78177708A0002007A100210874
:10045000F900F61F2C2A2D2A2E2A7914790803195F
:10046000322A332A432A790A031D372A382A402A96
:100470000030F7000030F6000030F5000030F400E6
:10048000F617F7014B2A0030F7000030F600003075
:10049000F5000030F4007A0879020318502A512A36
:1004A000952A781F542A552A592A8030A0002008FE
:1004B000F8067A08A0002008FB007908A0002008B0
:1004C000FA007B08A0002008F9007008A0002008AE
:1004D000FB007408A0002008F0007B08A0002008A2
:1004E000F4007108A0002008FB007508A000200897
:1004F000F1007B08A0002008F5007208A000200889
:10050000FB007608A0002008F2007B08A00020086D
:10051000F6007308A0002008FB007708A000200860
:10052000F3007B08A0002008F700FB017908A00079
:10053000A1012108A3007A082002A200031CA30342
:100540002308803AFF0080307F02031DA92A1A3059
:100550002202031CAC2AAD2AEE2A7308720471042D
:100560007004031DB42AB62A0130B72A0030831262
:100570000313A0002008FB000030F3000030F2005D
:100580000030F1000030F0007908A0002008FA00E7
:10059000F42A7B1CCC2ACD2AD82A7B088312031389
:1005A000A0000310200C0138A1002108FB00DA2A6A
:1005B0000310FB0C701CDD2ADE2ADF2AFB1701303A
:1005C00083120313A000730DF30CF20CF10CF00C6A
:1005D000A00BE32A0130A0002008FA0779087A026C
:1005E000031CF32AF42AC92A781BF72AF82A472B76
:1005F0007A08031DFC2AFD2A062B0030F300003088
:10060000F2000030F1000030F0007F2C7408F00799
:10061000750803110318013E03190F2BF107760823
:1006200003110318013E0319162BF2077708031173
:100630000318013E03191D2BF307731C202B212BDC
:10064000FF2B7B1C242B252B302B7B0883120313C1
:10065000A0000310200C0138A1002108FB00322B60
:100660000310FB0C701C352B362B372BFB1701307E
:1006700083120313A000730DF30CF20CF10CF00CB9
:10068000A00B3B2B0130A0002008FA07FF2B7308BA
:10069000803AFF007708803A7F02031D592B7608C5
:1006A0007202031D592B75087102031D592B740822
:1006B000700203185C2B5D2BB72BFF3083120313E2
:1006C000A000FF30A100FF30A200FF30A30074089B
:1006D000A4007508A5007608A6007708A700700892
:1006E000A4027108031C710F762B772BA5027208E8
:1006F000031C720F7C2B7D2BA6027308031C730F47
:10070000822B832BA7022408A00725080318250F96
:100710008A2B8B2BA10726080318260F902B912BD1
:10072000A20727080318270AA3072308F3002208B3
:10073000F2002108F1002008F0008030A00020081D
:10074000F806FB09FB0A7B08031DA72BA82BC52B6A
:100750000130F007003003180130F10700300318B2
:100760000130F207003003180130F307C52B74087D
:10077000F0027508031C750FF1027608031C760F52
:10078000F2027708031C770FF302730872047104F6
:100790007004031DCC2BCD2BFB2B7B08031DD12B11
:1007A000D22BFB2B0030F3000030F2000030F100C0
:1007B0000030F0007F2C013083120313A0000310DF
:1007C000F00DF10DF20DF30DA00BDF2BFB1FE92B4C
:1007D000EA2BEB2B70147B1CEE2BEF2BF22B03146C
:1007E000FB0DF42B0310FB0D7A080319F82BF92BE2
:1007F000FB2B0130FA02F21FFE2BFF2BDB2BF90142
:10080000FB1F032C042C122C7B087F390319092CA5
:100810000A2C0D2CF901F90A122C701C102C112C29
:10082000122C0A2C79080319162C172C4D2C013088
:10083000F007003003180130F107003003180130D1
:10084000F207003003180130F307731C282C292C01
:100850004D2C700883120313A0007108A1007208C8
:10086000A2007308A3000130A400230DA30CA20C66
:10087000A10CA00CA40B352C2308F3002208F200D5
:100880002108F1002008F0007A0A0319482C492CAD
:100890004D2C0130A0002008FA077A0A0319512CC8
:1008A000522C572C7A08031D562C572C652C0030DF
:1008B000F3000030F2000030F1000030F0007A0860
:1008C000031D632C642C652CF8017A1C682C692CA0
:1008D0006B2CF217712C7F3083120313A0002008B9
:1008E000F2057A0883120313A0000310200CA10064
:1008F0002108F300F81F7D2C7E2C7F2CF3170800B5
:100900008312031323088039A8002808AD002308A8
:10091000A8002807A9002908B300A21F902C912C39
:10092000922C331433080319962C972CA62C330AD7
:10093000031D9B2C9C2CA42C0030A3000030A20093
:100940000030A1000030A000A217AE2C0030A300A0
:100950000030A2000030A1000030A000270880393C
:10096000A8002808AD062708A8002807A90029081C
:10097000B200A61FBC2CBD2CBE2C321432080319A9
:10098000C22CC32CD22C320A031DC72CC82CD02C4D
:100990000030A7000030A6000030A5000030A40001
:1009A000A617DA2C0030A7000030A6000030A50002
:1009B0000030A40032080319DE2CDF2CE42C3308AD
:1009C000031DE32CE42CED2C0030A3000030A2002A
:1009D0000030A1000030A000E02F2008A800280867
:1009E000F00026080A128A1116200A128A117108CC
:1009F00083120313B9007008B8003808A800A901D1
:100A0000AA01AB012B08B1002A08B0002908AF00E9
:100A10002808AE003908A800A901AA01AB012B08DB
:100A2000B7002A08B6002908B5002808B400210834
:100A3000A8002808F00025080A128A1116200A12B8
:100A40008A11710883120313B9007008B8003808BE
:100A5000A800A901AA01AB012808AE0729080311C3
:100A60000318013E0319352DAF072A080311031897
:100A7000013E03193C2DB0072B0803110318013E5A
:100A80000319432DB1073908A800A901AA01AB0138
:100A90002808B407290803110318013E0319512D32
:100AA000B5072A0803110318013E0319582DB6078C
:100AB0002B0803110318013E03195F2DB707220805
:100AC000A8002808F00024080A128A1116200A1229
:100AD0008A11710883120313B9007008B80038082E
:100AE000A800A901AA01AB012808AE072908031133
:100AF0000318013E03197D2DAF072A0803110318BF
:100B0000013E0319842DB0072B0803110318013E81
:100B100003198B2DB1073908A800A901AA01AB015F
:100B20002808B407290803110318013E0319992D59
:100B3000B5072A0803110318013E0319A02DB607B3
:100B40002B0803110318013E0319A72DB70708301E
:100B5000A8000310AE0DAF0DB00DB10DA80BA92D5F
:100B60002108A8002808F00024080A128A1116207B
:100B70000A128A11710883120313B9007008B800B1
:100B80003808A8003908A900AA01AB012808AE0757
:100B9000290803110318013E0319CF2DAF072A08B6
:100BA00003110318013E0319D62DB0072B080311BA
:100BB0000318013E0319DD2DB1072008A8002808FD
:100BC000F00025080A128A1116200A128A117108EB
:100BD00083120313B9007008B8003808A800390858
:100BE000A900AA01AB012808AE07290803110318C0
:100BF000013E0319FC2DAF072A0803110318013E1B
:100C00000319032EB0072B0803110318013E031923
:100C10000A2EB1070830A8000310AE0DAF0DB00DBD
:100C2000B10DA80B0C2E2008A8002808F0002408FD
:100C30000A128A1116200A128A11710883120313EC
:100C4000B9007008B8003808A8003908A900AA013E
:100C5000AB012808AE07290803110318013E031948
:100C6000322EAF072A0803110318013E0319392E4B
:100C7000B0072B0803110318013E0319402EB107DA
:100C80002108A8002808F00026080A128A11162058
:100C90000A128A11710883120313B9007008B80090
:100CA0003808A8003908A900AA01AB012808B40730
:100CB000290803110318013E03195F2EB5072A08FE
:100CC00003110318013E0319662EB6072B08031102
:100CD0000318013E03196D2EB7072208A800280843
:100CE000F00025080A128A1116200A128A117108CA
:100CF00083120313B9007008B8003808A800390837
:100D0000A900AA01AB012808B40729080311031898
:100D1000013E03198C2EB5072A0803110318013E62
:100D20000319932EB6072B0803110318013E03196C
:100D30009A2EB7072208A8002808F00026080A12F1
:100D40008A1116200A128A11710883120313B9003E
:100D50007008B8003808A8003908A900AA01AB013A
:100D600008300310A80DA90DAA0DAB0DFF3E031D01
:100D7000B12E2808B407290803110318013E0319EE
:100D8000C22EB5072A0803110318013E0319C92E04
:100D9000B6072B0803110318013E0319D02EB7071D
:100DA0002E08A8002F08A9003008AA003108AB00BF
:100DB00018300310AB0CAA0CA90CA80CFF3E031DA5
:100DC000D92E2808B407290803110318013E031976
:100DD000EA2EB5072A0803110318013E0319F12E64
:100DE000B6072B0803110318013E0319F82EB707A5
:100DF0000830A8000310AE0DAF0DB00DB10DA80B5B
:100E0000FA2E33083207A800A901A90D2808823E4E
:100E1000B80029080318013EFF3EB9002C2F01300D
:100E2000A8000310B40DB50DB60DB70DA80B112F0A
:100E3000B11F1B2F1C2F1D2F34140130A8000310CD
:100E4000AE0DAF0DB00DB10DA80B1F2FFF30B807C1
:100E50000318B90AFF30B907B61F2F2F302F0F2FF5
:100E6000B201B11F342F352F512FFF302E05A800AE
:100E7000FF302F05A900FF303005AA007F30310573
:100E8000AB002B082A04290428040319482F492FF2
:100E90004C2FB201B20A512F341C4F2F502F512F1B
:100EA000492F32080319552F562F872F0130B407C9
:100EB000003003180130B507003003180130B607C1
:100EC000003003180130B707371C672F682F872FB2
:100ED0003408A8003508A9003608AA003708AB0076
:100EE0000130AC002B0DAB0CAA0CA90CA80CAC0B60
:100EF000722F2B08B7002A08B6002908B500280869
:100F0000B4000130B8070318B90A0030B90739082E
:100F1000803AFF0080307F02031D902FFF3038029F
:100F2000031C932F942F9F2F7F3083120313B7003E
:100F30008030B6000030B5000030B400D42F8312EA
:100F400003133908803AFF0080307F02031DAA2F67
:100F5000013038020318AD2FAE2FBA2F00308312A4
:100F60000313B7000030B6000030B5000030B40005
:100F7000AD01D42F831203133808A8002808B3004A
:100F8000FF30B405FF30B5057F30B6050030B7053A
:100F9000331CCB2FCC2FCD2FB6173308A80003104E
:100FA000280CA9002908B7002D08A8002808B704B4
:100FB0003708A3003608A2003508A1003408A000B5
:100FC00008008313B030FD000E30FE00C330FF0078
:100FD000A03084000A128A1107200A128A11653093
:100FE000FD000E30FE00A130FF005D3084000A12CB
:100FF0008A1107200A128A1183010A128A15D32E38
:101D4200093400340C3400340634003403340034D3
:101D52008316031388018312031388010130E500FF
:101D62000030E6000800FF3083160313850083125B
:101D720003139F01831603139F019F1783120313FB
:101D82001F140800083400340C34003404340034C6
:101D92000634003402340034033400340134003495
:101DA200093400340A128A15A9260A128A150A125F
:101DB2008A15B4260A128A150A128A11F7200A1203
:101DC2008A150A128A1100287008F20002300310E4
:101DD200F20DFF3E031DE82E0310720DF30073088F
:101DE200831203139F04F930F200F20BF62EF92E40
:101DF200831203131F151F19FF2E002FFC2E1E081E
:101E0200F100831603131E08F000080080308312CD
:101E12000313BD064108F3004008F2003F08F10039
:101E22003E08F0003D08F7003C08F6003B08F500CC
:101E32003A08F4000A128A11E8210A128A15730874
:101E420083120313BD007208BC007108BB00700846
:101E5200BA000800F601F31F2F2F302F372FF20997
:101E6200F309F20A0319F30AF601F60AF11F3A2FEF
:101E72003B2F402FF009F109F00A0319F10A70080B
:101E820071040319452F462F752FF501F50A542FBA
:101E920001300310F00DF10DFF3E031D4A2F0130FA
:101EA200F4007408F507F11F572F582F492F7108B6
:101EB2007302031D5E2F70087202031C612F622FD2
:101EC200682F7008F2027108031CF303F302013059
:101ED2000310F10CF00CFF3E031D692F0130F502D7
:101EE200031D742F752F582F76080319792F7A2F17
:101EF2007F2FF209F309F20A0319F30A7308F100BA
:101F02007208F0000800031083120313440D450DFC
:101F1200C6004608CC004C08031D902F912F9A2F23
:101F22000030C5000030C4000030C3000030C200E1
:101F3200FF2F4208C6004308C7004408C8004508EE
:101F4200C9001F300310C90CC80CC70CC60CFF3ED9
:101F5200031DA32F4608CA004A08CB00C417FF304E
:101F6200C205FF30C305FF30C4050030C5059630F9
:101F7200CC02CC1FBD2FBE2FD82F4C08803A973EE3
:101F82000318C42FC52FC62F912F01300310C50C83
:101F9200C40CC30CC20CFF3E031DC72F0130C60088
:101FA2004608CC07031DD62FD72FC62FEF2F203080
:101FB2004C02031CDD2FDE2FEA2F912F0130C600C9
:101FC2000310C20DC30DC40DC50DC60BE12F0130A8
:101FD200CC024C08031DEE2FEF2FDF2F4B08031905
:101FE200F32FF42FFF2FC209C309C409C509C20A7E
:0E1FF2000319C30A0319C40A0319C50A08001B
:02400E00FA3F77
:00000001FF
